S00C00006D61696E2E7372656373
S11300000C9434000C9451000C9451000C94510045
S11300100C9420060C9451000C9451000C94510043
S11300200C9451000C9451000C9451000C94510008
S11300300C9451000C9451000C9418010C94510030
S11300400C9451000C9451000C9451000C945100E8
S11300500C9451000C9451000C9451000C945100D8
S11300600C9451000C94510011241FBECFEFD8E022
S1130070DEBFCDBF11E0A0E0B1E0E6EFF8E102C0E1
S113008005900D92AE32B107D9F713E0AEE2B1E0BC
S113009001C01D92AA34B107E1F70E942E050C9409
S11300A0790C0C94000080E480937C0087E88093B2
S11300B07A000895ECE7F0E09081907F908390813E
S11300C0892B808383EC99E00197F1F700C000004D
S11300D0EAE7F0E0808180648083808184FFFDCF43
S11300E0EAE7F0E0808180618083809178009091DC
S11300F0790008950F931F93CF93DF938C01EB0145
S1130100DA0180913A0190913B010097B1F0E1E46A
S1130110F1E021E030E0422FB90180819181009724
S113012041F02F5F3F4F379626303105A1F7842FDA
S113013001C0822F853021F417C060E070E040E0F8
S1130140CB01880F991F880F991F880F991F861B51
S1130150970BFC01E65CFE4F11830083D383C283BB
S1130160B583A4831682842FDF91CF911F910F91C1
S1130170089590E0FC01EE0FFF1FEE0FFF1FEE0F3E
S1130180FF1FE81BF90BE65CFE4F118210821382FD
S1130190128215821482168280E00895CF92DF9233
S11301A0EF92FF921F93CF93DF93C0E4D1E00F2E21
S11301B0FAEFEF2EFFEFFF2EF02DEC0EFD1E10E0F8
S11301C08881882391F0D701ED91FC9111973097A4
S11301D061F00995888181508883F7018481958134
S11301E0009719F4812F0E94B9001F5F279687E0BA
S11301F090E0E80EF91E153019F7DF91CF911F91A9
S1130200FF90EF90DF90CF900895CF93C0E08C2FB4
S11302100E94B900CF5FC530D1F78AE687BD8CE074
S113022085BD82E080936E00CF91089578940895FF
S11302301F920F920FB60F9211242F933F938F9317
S11302409F93AF93BF93CF93DF93EF93FF93EAE32F
S1130250F1E0DF0116969F012D5D3F4F8081918172
S1130260009791F082819381009759F48C918F5F6C
S11302708C9384819581009739F0019793838283CD
S113028003C001979383828337961796E217F30787
S113029029F7FF91EF91DF91CF91BF91AF919F919A
S11302A08F913F912F910F900FBE0F901F90189533
S11302B00F931F93CF93DF93CDB7DEB72A970FB673
S11302C0F894DEBF0FBECDBF00D000D000D0EDB794
S11302D0FEB731968E010F5F1F4FADB7BEB71296B2
S11302E01C930E93119720E031E03383228395838E
S11302F084830E94A2098DB79EB706960FB6F89420
S11303009EBF0FBE8DBFC8010E9480052A960FB6FE
S1130310F894DEBF0FBECDBFDF91CF911F910F9137
S11303200895EF92FF920F931F93CF938C01C0E037
S1130330E62EFF240894E108F1080E9462058A3041
S113034079F0F801EC0FF11D8083CF5F8C2F90E0E2
S1130350F801E80FF91F10828E159F0574F304C08D
S1130360F801EC0FF11D1082CF911F910F91FF90B6
S1130370EF900895CF93DF93C6E2D2E0CE0164E11B
S11303800E949101CE0163E071E00E949209282F3E
S1130390392F2115310541F48DE091E00E9480054B
S11303A081E090E00E947B05DF91CF9108958091D8
S11303B02E0190912F018130910539F410922F0173
S11303C010922E0181E090E008958230910539F475
S11303D010922F0110922E0182E090E0089580E0A7
S11303E090E008958EE591E068EC0E94910180917F
S11303F05E018333A1F0843328F4813351F08233D6
S113040039F50AC08533A9F0853360F0863301F5E8
S113041017C00E94A30408950E94F30408950E9443
S11304205C0608958CE591E10E9458010E94040342
S1130430089583EB95E10E9458010E9417030895E3
S11304408EE591E00E942A038AE09AE10E94580115
S11304500895CF92DF92EF92FF920F931F93CF9361
S1130460DF93CDB7DEB7C456D0400FB6F894DEBFE5
S11304700FBECDBF2AE037ED43EA5BE30E94AB0633
S1130480E62EF72ED82EC92E862F9F2DAD2DBC2DEE
S1130490BC01CD010E940F078B019C018E2D9F2D65
S11304A0AD2DBC2DBC01CD0120E030E048EC52E480
S11304B00E94CE070E940F07DC01CB0164E670E0C6
S11304C00E944508FE01319624E6DF011D922A951B
S11304D0E9F76AE070E00E944508805D8983605D09
S11304E06A838EE28B83101611067CF4FE01349627
S11304F02AE030E0C801B9010E944508805D81937B
S1130500062F172F10161106ACF3DE011196FD010C
S113051001900020E9F73197EA1BFB0B8F01015092
S113052010405AF07D01EE0EFF1EF70182917F010B
S11305300E94A90501501040C2F7CC59DF4F0FB6F5
S1130540F894DEBF0FBECDBFDF91CF911F910F9105
S1130550FF90EF90DF90CF900895EF92FF920F936A
S11305601F93CF93DF93182F092FC62FD72FE82F70
S1130570F92FDF010D900020E9F71197CD018E1BB3
S11305809F0BE62FF72FDF010D900020E9F711975D
S1130590AE1BBF0B8A0F9B1F01960E945808E82EC2
S11305A0F92E612F702F0E949B098E2D9F2D6C2F89
S11305B07D2F0E9487098E2D9F2DDF91CF911F9152
S11305C00F91FF90EF900895559A569A579A08956F
S11305D0009711F45D9808955D9A0895009711F4B9
S11305E05F9808955F9A0895009711F45E980895AE
S11305F05E9A08959093EF028093EE02089580919D
S1130600EE029091EF02089581E090E00E94EE02E4
S113061080E090E00E94E80281E090E0909337014E
S1130620809336011092330110923201089580E0D4
S113063090E00E94EE0281E090E00E94E80282E0F5
S113064090E0909337018093360110923301109219
S113065032010895CF93DF93EC01E82FFD2FDF01E2
S11306600D900020E9F71197AE1BBF0BA430B10524
S1130670E1F4298130E084E690E0289FA001299FDD
S1130680500D389F500D11248A8190E0880F991FD6
S11306909C01220F331F220F331F280F391F240FF1
S11306A0351F8B81280F311D18C0A330B10581F48B
S11306B0298130E0C901880F991F9C01220F331F43
S11306C0220F331F280F391F8A81280F311D05C0BF
S11306D0A230B10511F4298130E030931E0120933A
S11306E01D01DF91CF9108958091360190913701DA
S11306F008958091360190913701009721F480E0AC
S113070090E00E94F402809136019091370181308B
S1130710910509F041C04091340150913501209177
S11307201D0130911E0142175307B4F52091300189
S1130730309131012115310509F07DC081E090E04F
S113074090933101809330018FE392E4AFE08150C4
S11307509040A040E1F700C0000081E090E00E94DA
S1130760F4028FE392E4AFE081509040A040E1F7BF
S113077000C0000080E090E00E94F4028091340107
S11307809091350101969093350180933401109234
S113079031011092300140C08230910509F04BC004
S11307A08091340190913501181619060CF051C04E
S11307B08091300190913101009709F052C081E09D
S11307C090E090933101809330018FE392E4AFE0A5
S11307D081509040A040E1F700C0000081E090E02B
S11307E00E94F4028FE392E4AFE081509040A04075
S11307F0E1F700C0000080E090E00E94F4028091E4
S1130800340190913501019790933501809334011F
S1130810109231011092300180913601909137018C
S11308208230910541F4809134019091350118167C
S11308301906BCF00EC08130910599F42091340161
S11308403091350180911D0190911E0128173907BF
S113085044F0109237011092360110923301109235
S1130860320108950F931F93CF93DF93CDB7DEB773
S11308702A970FB6F894DEBF0FBECDBF00D000D0CC
S113088000D0EDB7FEB731968E010F5F1F4FADB7A5
S1130890BEB712961C930E9311972AE131E033836D
S11308A02283958384830E94A2098DB79EB70696FE
S11308B00FB6F8949EBF0FBE8DBFC8010E9480057D
S11308C02A960FB6F894DEBF0FBECDBFDF91CF914D
S11308D01F910F91089580E090E00E945A00BC019E
S11308E080E090E00E94400720E030E040EA50E4DD
S11308F00E94CE07462F572F682F792FCB01BA01BC
S113090020E030E040E85AE30E94CE0720E030E0E7
S113091040E05FE30E94AA0620E030E048EC52E4A5
S11309200E94CE07462F572F682F792FCB01BA018B
S113093020E030E048EC52E40E94CE070E94140705
S1130940862F972F08950F931F93CF93DF93CDB7DF
S1130950DEB72A970FB6F894DEBF0FBECDBF0E9454
S11309606B0400D000D000D0EDB7FEB731968E01F5
S11309700F5F1F4FADB7BEB712961C930E9311971E
S11309802FE131E033832283958384830E94A2097B
S11309908DB79EB706960FB6F8949EBF0FBE8DBF57
S11309A0C8010E94F1052A960FB6F894DEBF0FBE67
S11309B0CDBFDF91CF911F910F9108951092C50083
S11309C083E38093C4001092C00088E18093C10047
S11309D086E08093C2000E94BA01089583E090E00B
S11309E00E945A0008950F931F93CF93DF93CDB7BE
S11309F0DEB72A970FB6F894DEBF0FBECDBF0E94B4
S1130A00EE0400D000D000D0EDB7FEB731968E01D1
S1130A100F5F1F4FADB7BEB712961C930E9311977D
S1130A2022E231E033832283958384830E94A209E6
S1130A308DB79EB706960FB6F8949EBF0FBE8DBFB6
S1130A40C8010E94F1052A960FB6F894DEBF0FBEC6
S1130A50CDBFDF91CF911F910F9108950E94DE04C5
S1130A600E94FA050E9453000E94E40281E090E093
S1130A700E94FA020E94050189E793E060E070E0B9
S1130A8041E050E00E947A0082EF91E060E070E083
S1130A9041E050E00E947A008FE39DE0A3E08150A2
S1130AA09040A040E1F700C000000E9416010E949F
S1130AB0CE00FDCFE0ECF0E0908195FFFDCF809378
S1130AC0C60008958091380190913901009741F44E
S1130AD0E0ECF0E080818823ECF78091C600089573
S1130AE02091C000222334F48130910519F48091BF
S1130AF0C6000895089590933901809338010895AC
S1130B00EF92FF920F931F93CF93DF93F82EE92E6A
S1130B10082F192FC0E0D0E006C0F80181918F01A1
S1130B200E945A052196EF2DFE2DDF010D90002025
S1130B30E9F71197AE1BBF0BCA17DB0770F38AE006
S1130B400E945A05DF91CF911F910F91FF90EF9072
S1130B500895E0ECF0E0908195FFFDCF8093C6000E
S1130B6008950F931F93CF93DF938C01E82FF12FF8
S1130B70DF010D900020E9F71197AE1BBF0BA630E3
S1130B80B10539F0A730B105C9F0A530B105C9F4F4
S1130B9003C0C0E0D0E00AC0C0E0D0E080E30E941F
S1130BA0A9052196C330D105C9F70BC080E30E9483
S1130BB0A9052196C230D105C9F703C080E30E947C
S1130BC0A905F8018081882339F0E80121960E9463
S1130BD0A90589918823D9F7DF91CF911F910F91AE
S1130BE008950E94800587EA91E60197F1F700C015
S1130BF00000089587B1806387B93D98459A449869
S1130C00E4E6F0E08081877F808310928500109273
S1130C108400E1E8F0E080818160808380818064E9
S1130C20808382E08093680080E280936C007894F3
S1130C300895449A83E08A95F1F700004498089552
S1130C401F920F920FB60F9211248F939F93359B8F
S1130C5005C010928500109284000BC0809184001E
S1130C609091850090934403809343038FB7F89445
S1130C708FBF9F918F910F900FBE0F901F9018956B
S1130C80CF93DF93C0914303D09144030E9419068C
S1130C908091430390914403C817D907B9F36AE3D9
S1130CA070E00E943108862F972F60934103709360
S1130CB04203DF91CF9108950F931F93CF93DF9356
S1130CC0CDB7DEB764970FB6F894DEBF0FBECDBFC5
S1130CD000914303109144030E9419068091430339
S1130CE09091440308171907B9F36AE370E00E946E
S1130CF03108609341037093420300D000D000D0C8
S1130D00EDB7FEB731968E010F5F1F4FADB7BEB77B
S1130D1012961C930E93119785E291E0938382833C
S1130D20648375830E94A2098DB79EB706960FB699
S1130D30F8949EBF0FBE8DBFC8010E94F105649652
S1130D400FB6F894DEBF0FBECDBFDF91CF911F91D8
S1130D500F9108955058BB27AA270ED0E5C0D6D0CE
S1130D6030F0DBD020F031F49F3F11F41EF4CBC0FF
S1130D700EF4E095E7FBC1C0E92FE7D080F3BA1782
S1130D80620773078407950718F071F49EF5FFC096
S1130D900EF4E0950B2EBA2FA02D0B01B901900192
S1130DA00C01CA01A0011124FF27591B99F0593FD6
S1130DB050F4503E68F11A16F040A22F232F342F1E
S1130DC04427585FF3CF469537952795A795F0406C
S1130DD05395C9F77EF41F16BA0B620B730B840B81
S1130DE0BAF09150A1F0FF0FBB1F661F771F881F39
S1130DF0C2F70EC0BA0F621F731F841F48F4879591
S1130E0077956795B795F7959E3F08F0B3CF93957F
S1130E10880F08F09927EE0F97958795089504D0C9
S1130E206894B111B5C0089598D088F09F5790F098
S1130E30B92F9927B751A0F0D1F0660F771F881FFB
S1130E40991F1AF0BA95C9F712C0B13081F09FD03A
S1130E50B1E008959CC0672F782F8827B85F39F0D8
S1130E60B93FCCF3869577956795B395D9F73EF45A
S1130E7090958095709561957F4F8F4F9F4F089502
S1130E80E89409C097FB3EF4909580957095619520
S1130E907F4F8F4F9F4F9923A9F0F92F96E9BB27D6
S1130EA09395F695879577956795B795F111F8CF52
S1130EB0FAF4BB0F11F460FF1BC06F5F7F4F8F4FBD
S1130EC09F4F16C0882311F096E911C0772321F0B3
S1130ED09EE8872F762F05C0662371F096E8862F4B
S1130EE070E060E02AF09A95660F771F881FDAF7A2
S1130EF0880F9695879597F9089597F99F6780E8E5
S1130F0070E060E008959FEF80EC089500240A9457
S1130F101616170618060906089500240A941216D0
S1130F201306140605060895092E0394000C11F403
S1130F30882352F0BB0F40F4BF2B11F460FF04C0B0
S1130F406F5F7F4F8F4F9F4F089557FD9058440F09
S1130F50551F59F05F3F71F04795880F97FB991F14
S1130F6061F09F3F79F087950895121613061406D1
S1130F70551FF2CF4695F1DF08C01616170618065E
S1130F80991FF1CF86957105610508940895E89439
S1130F90BB2766277727CB0197F908950BD0C4CFD9
S1130FA0B5DF28F0BADF18F0952309F0A6CFABCF50
S1130FB01124EECFCADFA0F3959FD1F3950F50E033
S1130FC0551F629FF001729FBB27F00DB11D639FF7
S1130FD0AA27F00DB11DAA1F649F6627B00DA11D9D
S1130FE0661F829F2227B00DA11D621F739FB00D43
S1130FF0A11D621F839FA00D611D221F749F3327B3
S1131000A00D611D231F849F600D211D822F762F4B
S11310106A2F11249F5750408AF0E1F088234AF048
S1131020EE0FFF1FBB1F661F771F881F9150504094
S1131030A9F79E3F510570F060CFAACF5F3FECF354
S1131040983EDCF3869577956795B795F795E79580
S11310509F5FC1F7FE2B880F911D9695879597F991
S11310600895AA1BBB1B51E107C0AA1FBB1FA617EB
S1131070B70710F0A61BB70B881F991F5A95A9F73D
S113108080959095BC01CD01089597FB092E072604
S11310900AD077FD04D0E5DF06D000201AF470955D
S11310A061957F4F0895F6F7909581959F4F089528
S11310B0CF93DF93AC018230910510F442E050E00D
S11310C0E0914803F091490320E030E0A0E0B0E073
S11310D024C08081918184179507D0F084179507E7
S11310E071F482819381109729F013969C938E93C7
S11310F012972CC0909349038093480327C021156D
S1131100310519F08217930718F49C01BD01EF0112
S113111092818381DF01E92FF82F3097D1F62115D1
S11311203105F9F0C901841B950B8430910580F4D5
S11311308A819B816115710521F0FB019383828370
S113114004C09093490380934803FE01329642C041
S1131150FE01E80FF91F4193519302979983888305
S113116039C08091460390914703009741F48091E0
S11311702A0190912B019093470380934603209179
S11311802801309129012115310541F42DB73EB7CD
S113119080912C0190912D01281B390BE09146037D
S11311A0F0914703E217F30798F42E1B3F0B241723
S11311B0350770F0CA0102962817390748F08E0FD8
S11311C09F1F90934703809346034193519302C01A
S11311D0E0E0F0E0CF01DF91CF9108950F931F93EA
S11311E0CF93DF939C01009709F48CC0DC01129724
S11311F013961C921E9212976091480370914903B2
S11312006115710589F48D919C911197820F931F3B
S113121020914603309147032817390769F5B093A5
S11312204703A09346036EC0FB0140E050E001C0B9
S1131230FC01EA17FB0730F482819381AF01009728
S1131240B9F71FC0E9012297FB83EA83088119815A
S1131250C901800F911F8E179F0759F480819181D6
S1131260800F911F029699838883828193819B8347
S11312708A834115510529F4B0934903A093480387
S113128041C0FA01B383A283C191D191EC0FFD1F38
S1131290AE17BF0781F4F901929182918C0F9D1FC3
S11312A00296DA0111969C938E9382819381139610
S11312B09C938E931297E0E0F0E002C0FB01BC0126
S11312C0DB0112968D919C9113970097B9F7CB018E
S11312D002962D913C911197820F931F2091460302
S11312E0309147032817390769F4309729F410928D
S11312F049031092480302C0138212827093470379
S113130060934603DF91CF911F910F910895FB01E4
S1131310DC010D900020E9F7119701900D92002057
S1131320E1F70895FB01DC018D9101908019011012
S1131330D9F3990B0895FB01DC0101900D92002073
S1131340E1F70895AEE0B0E0E8EAF9E00C94500C5F
S11313500D891E8986E08C831A8309838FEF9FE7AA
S11313609E838D83AE01475E5F4FCE0101966F89E8
S1131370788D0E94C409EF81F885E00FF11F108277
S11313802E96E4E00C946C0CADE0B0E0EAECF9E0ED
S11313900C94420C3C017D876C875A01FC01178236
S11313A01682838181FFC8C12E010894411C511CFF
S11313B0F3019381EC85FD8593FD859193FF8191E4
S11313C0FD87EC87882309F4B3C1853241F493FD8A
S11313D0859193FF8191FD87EC87853229F490E014
S11313E0B3010E94B80BE4CFFF24EE2410E01032C6
S11313F0B0F48B3269F08C3228F4803251F08332AD
S113140071F40BC08D3239F0803349F411602CC073
S11314101260146029C0186027C0106125C017FD30
S11314202EC0282F20532A3098F416FF08C08F2D81
S1131430880FF82EFF0CFF0CF80EF20E15C08E2D3F
S1131440880FE82EEE0CEE0CE80EE20E10620CC0D3
S11314508E3221F416FD6CC1106406C08C3611F472
S1131460106802C0883659F4EC85FD8593FD85919A
S113147093FF8191FD87EC87882309F0B8CF982FDB
S11314809554933018F09052933038F424E030E0BF
S1131490A20EB31E3FE339830FC0833631F0833786
S11314A081F0833509F05AC022C0F5018081898317
S11314B022E030E0A20EB31E21E0C22ED12C420164
S11314C014C092E0292E312C2A0C3B1CF50180809B
S11314D0918016FF03C06F2D70E002C06FEF7FEFA5
S11314E0C4010E94AD0B6C0151011F7715C082E04D
S11314F0282E312C2A0C3B1CF5018080918016FF8C
S113150003C06F2D70E002C06FEF7FEFC4010E9433
S1131510A20B6C011068510113FD1CC006C080E2CF
S113152090E0B3010E94B80BEA948E2D90E0C816A7
S1131530D906A8F30FC0F40117FD859117FF819117
S11315404F0190E0B3010E94B80BE110EA940894B3
S1131550C108D108C114D10471F7E7C0843611F071
S1131560893651F5F50117FF07C080819181A28169
S1131570B38124E030E008C080819181AA2797FDDF
S1131580A095BA2F22E030E0A20EB31E012F0F76F1
S1131590B7FF08C0B095A095909581959F4FAF4F28
S11315A0BF4F0068BC01CD01A2012AE030E00E94D7
S11315B0E40BD82ED4183FC0853721F41F7E2AE0CF
S11315C030E020C0197F8F36A9F0803720F48835A9
S11315D009F0AEC00BC0803721F0883709F0A8C0ED
S11315E001C0106114FF09C0146007C014FF08C0D3
S11315F0166006C028E030E005C020E130E002C0FB
S113160020E132E0F50117FF07C06081718182811A
S1131610938144E050E006C06081718180E090E0F5
S113162042E050E0A40EB51EA2010E94E40BD82EA5
S1131630D418012F0F7706FF09C00E7FDF1430F492
S113164004FF06C002FD04C00F7E02C01D2D01C0B0
S11316501F2D802F90E004FF0CC0FE01ED0DF11D45
S11316602081203311F4097E09C002FF06C01E5FE9
S113167005C086789070009709F01F5F802E99242A
S113168003FD12C000FF0DC0FD2C1E1550F4FE0C0E
S1131690F11A1E2D06C080E290E0B3010E94B80B3F
S11316A01F5F1E15C0F304C01E1510F4E11A01C01B
S11316B0EE2484FE0FC080E390E0B3010E94B80BD7
S11316C082FE1FC081FE03C088E590E010C088E759
S11316D090E00DC0C40186789070009791F081FC71
S11316E002C080E201C08BE207FD8DE290E0B3010D
S11316F00E94B80B06C080E390E0B3010E94B80BCF
S1131700FA94DF14C0F3DA94F201ED0DF11D808137
S113171090E0B3010E94B80BDD20A9F706C080E277
S113172090E0B3010E94B80BEA94EE20C1F740CEDA
S1131730F3018681978102C08FEF9FEF2D96E2E13E
S11317400C945E0CFC010590615070400110D8F7B8
S1131750809590958E0F9F1F0895FC0161507040F5
S113176001900110D8F7809590958E0F9F1F0895D2
S11317700F931F93CF93DF938C01EB018B8181FF38
S11317801BC082FF0DC02E813F818C819D81281753
S1131790390764F4E881F9810193F983E88306C089
S11317A0E885F985802F0995009731F48E819F8112
S11317B001969F838E8302C00FEF1FEFC801DF9154
S11317C0CF911F910F910895FA01AA27283051F162
S11317D0203181F1E8946F936E7F6E5F7F4F8F4F5E
S11317E09F4FAF4FB1E03ED0B4E03CD0670F781FBD
S11317F0891F9A1FA11D680F791F8A1F911DA11DA2
S11318006A0F711D811D911DA11D20D009F46894DA
S11318103F912AE0269F11243019305D3193DEF682
S1131820CF010895462F4770405D4193B3E00FD038
S1131830C9F7F6CF462F4F70405D4A3318F0495D23
S113184031FD4052419302D0A9F7EACFB4E0A69506
S11318509795879577956795BA95C9F70097610528
S1131860710508959B01AC010A2E0694579547957E
S113187037952795BA95C9F7620F731F841F951F73
S1131880A01D08952F923F924F925F926F927F9284
S11318908F929F92AF92BF92CF92DF92EF92FF927C
S11318A00F931F93CF93DF93CDB7DEB7CA1BDB0B28
S11318B00FB6F894DEBF0FBECDBF09942A883988CD
S11318C048885F846E847D848C849B84AA84B984D4
S11318D0C884DF80EE80FD800C811B81AA81B981E0
S11318E0CE0FD11D0FB6F894DEBF0FBECDBFED01F4
S10918F00895F894FFCFF7
S11318F625750068616E647368616B650048616E86
S113190664207368616B656421002575000A0025EF
S1111916750025750025750000004A032000A9
S9030000FC
